:100000000C945C000C9479000C9479000C947900A9
:100010000C9479000C9479000C9479000C9479007C
:100020000C9479000C9479000C9479000C9479006C
:100030000C9479000C9479000C9479000C9479005C
:100040000C9421010C9479000C9479000C947900A3
:100050000C9479000C9479000C9479000C9479003C
:100060000C9479000C947900000000002400270013
:100070002A0000000000250028002B0004040404CE
:100080000404040402020202020203030303030342
:10009000010204081020408001020408102001021F
:1000A00004081020000000080002010000030407FB
:1000B000000000000000000011241FBECFEFD8E0B8
:1000C000DEBFCDBF11E0A0E0B1E0E6E0F4E002C0A9
:1000D00005900D92AE30B107D9F721E0AEE0B1E066
:1000E00001C01D92A731B207E1F70E946B010C9489
:1000F00001020C94000090E0FC01EC55FF4F2491AC
:10010000FC01E057FF4F3491FC01E458FF4FE491AC
:10011000EE23C9F0222339F0233001F1A8F4213075
:1001200019F1223029F1F0E0EE0FFF1FEE58FF4FDA
:10013000A591B4918FB7F894EC91611126C03095D8
:100140003E233C938FBF08952730A9F02830C9F093
:10015000243049F7809180008F7D03C0809180001A
:100160008F7780938000DFCF84B58F7784BDDBCF1E
:1001700084B58F7DFBCF8091B0008F778093B000E6
:10018000D2CF8091B0008F7DF9CF3E2BDACF3FB731
:10019000F8948091130190911401A0911501B091F0
:1001A000160126B5A89B05C02F3F19F00196A11D89
:1001B000B11D3FBFBA2FA92F982F8827BC01CD01B1
:1001C000620F711D811D911D42E0660F771F881F10
:1001D000991F4A95D1F708958F929F92AF92BF923F
:1001E000CF92DF92EF92FF920E94C7004B015C0119
:1001F00084E6C82ED12CE12CF12C0E94C70068198E
:1002000079098A099B09683E734081059105A8F325
:1002100021E0C21AD108E108F10888EE880E83E0D7
:10022000981EA11CB11CC114D104E104F10429F7EA
:10023000FF90EF90DF90CF90BF90AF909F908F9006
:1002400008951F920F920FB60F9211242F933F9390
:100250008F939F93AF93BF9380910F019091100163
:10026000A0911101B091120130910E0123E0230FF2
:100270002D3758F50196A11DB11D20930E018093D5
:100280000F0190931001A0931101B093120180917E
:10029000130190911401A0911501B09116010196DE
:1002A000A11DB11D8093130190931401A09315011A
:1002B000B0931601BF91AF919F918F913F912F9174
:1002C0000F900FBE0F901F90189526E8230F0296EF
:1002D000A11DB11DD2CF789484B5826084BD84B550
:1002E000816084BD85B5826085BD85B5816085BD31
:1002F00080916E00816080936E00109281008091E9
:100300008100826080938100809181008160809370
:100310008100809180008160809380008091B10095
:1003200084608093B1008091B00081608093B000C0
:1003300080917A00846080937A0080917A00826054
:1003400080937A0080917A00816080937A00809116
:100350007A00806880937A001092C100C0E0D1E0FA
:1003600081E0CE30D80791F420E0E22E20E0F22E9A
:10037000C0E0D1E0F1E0CE30DF0769F1888122965C
:1003800061E00E947B000E94EC00F4CF899199917A
:100390009C013327F901E057FF4F449124583F4F08
:1003A000F9012491222399F030E0220F331FF90143
:1003B000E859FF4FA591B491F901EE58FF4F2591EF
:1003C00034912FB7F894EC91E42BEC932FBF60E0BD
:1003D0000E947B00C5CF00E011E0C017D10751F0AB
:1003E000F80180810E5F1F4F60E00E947B000E9439
:1003F000EC00F3CFE114F10409F4BACF0E9400003D
:06040000B7CFF894FFCF16
:0E0406000200030004000500060007000800C5
:00000001FF
